:100000000C942A000C9447000C9447000C94470071
:100010000C9447000C9447000C9447000C94470044
:100020000C9447000C9447000C9447000C94470034
:100030000C9447000C9447000C9447000C94470024
:100040000C9447000C9447000C9447000C94470014
:100050000C94470011241FBECFE5D8E0DEBFCDBF12
:1000600010E0A0E6B0E0E2E1F6E202C005900D92F9
:10007000A038B107D9F710E0A0E8B0E001C01D92A8
:10008000A03AB107E1F70E9467120C9407130C9491
:100090000000EF92FF920F931F937B018C0120E0F1
:1000A00030E040E05FE40E94F50388238CF0C80153
:1000B000B70120E030E040E05FE40E94C1010E940F
:1000C00055049B01AC01205030404040504806C0D0
:1000D000C801B7010E9455049B01AC01B901CA01D6
:1000E0001F910F91FF90EF900895A0E0B0E0EBE733
:1000F000F0E00C94D012DC012B01FA019C919230BB
:1001000008F439C1EB018881823008F433C194309E
:1001100069F4843009F02FC111969C91119789815F
:10012000981709F428C1A0E6B0E025C1843009F48D
:1001300021C18230A9F4923009F01DC19A01AD01AC
:1001400088E0EA010990AE01E90109929E0181501F
:10015000C1F7E201898111969C918923818308C1AD
:10016000923009F407C112962D903C901397EB0141
:100170008A819B811496AD90BD90CD90DC901797AD
:10018000EC80FD800E811F819101281B390BB90184
:1001900037FF04C066277727621B730B6032710537
:1001A0000CF061C0121613066CF537014801062EDB
:1001B00004C096948794779467940A94D2F721E0C8
:1001C00030E040E050E004C0220F331F441F551FB1
:1001D0006A95D2F721503040404050402E213F21B7
:1001E00040235123211531054105510521F021E01E
:1001F00030E040E050E079018A01E628F72808293C
:1002000019293CC0232BD1F1260E371E350146019A
:10021000062E04C096948794779467940A94D2F734
:1002200021E030E040E050E004C0220F331F441FC3
:10023000551F6A95D2F721503040404050402A2146
:100240003B214C215D21211531054105510521F04E
:1002500021E030E040E050E059016A01A628B728CB
:10026000C828D9280BC0821593052CF01C01AA249C
:10027000BB24650103C0EE24FF24870111969C91E5
:10028000D20111968C91981709F445C0992339F041
:10029000A80197012A193B094C095D0906C0A6016E
:1002A00095012E193F09400B510B57FD08C01182D3
:1002B0003382228224833583468357831DC081E0A5
:1002C00081833382228288279927DC01821B930B4A
:1002D000A40BB50B84839583A683B7830DC0220F2F
:1002E000331F441F551F24833583468357838281E0
:1002F000938101979383828324813581468157813D
:10030000DA01C9010197A109B1098F5F9F4FAF4F72
:10031000BF4328F30BC0918333822282EA0CFB1C7B
:100320000C1D1D1DE482F5820683178383E0808304
:10033000248135814681578157FF1AC0C901AA27F8
:1003400097FDA095BA2F81709070A070B0705695EF
:10035000479537952795822B932BA42BB52B848318
:100360009583A683B7838281938101969383828349
:10037000DF0101C0D201CD01CDB7DEB7E2E10C94BF
:10038000EC12A0E2B0E0E7ECF1E00C94DC1269833F
:100390007A838B839C832D833E834F835887E9E048
:1003A000EE2EF12CEC0EFD1ECE010196B7010E943F
:1003B0007E058E010F5E1F4FCE010596B8010E948B
:1003C0007E058A8991E089278A8BC701B801AE0131
:1003D000475E5F4F0E9475000E94A904A096E6E068
:1003E0000C94F812A0E2B0E0E8EFF1E00C94DC121B
:1003F00069837A838B839C832D833E834F835887C5
:10040000F9E0EF2EF12CEC0EFD1ECE010196B701A6
:100410000E947E058E010F5E1F4FCE010596B8012A
:100420000E947E05C701B801AE01475E5F4F0E9482
:1004300075000E94A904A096E6E00C94F812A0E2D0
:10044000B0E0E5E2F2E00C94D01269837A838B830A
:100450009C832D833E834F835887CE010196BE0136
:10046000675F7F4F0E947E05CE010596BE016F5EDD
:100470007F4F0E947E059985923088F0898982306D
:10048000C8F0943019F4823051F404C0843029F457
:10049000923081F480E690E0C6C0923049F420E0CA
:1004A0009A858A89981321E02A87CE010996BBC0D4
:1004B000823049F420E09A858A89981321E02A8BBA
:1004C000CE014196B0C02D843E844F8458886D88FB
:1004D0007E888F88988CEE24FF248701AA24BB2471
:1004E000650140E050E060E070E0E0E0F0E0C10174
:1004F00081709070892BE9F0E60CF71C081D191D1E
:100500009A01AB012A0D3B1D4C1D5D1D80E090E062
:10051000A0E0B0E0E614F7040805190520F481E036
:1005200090E0A0E0B0E0BA01A901480F591F6A1F8E
:100530007B1FAA0CBB1CCC1CDD1C97FE08C081E0F5
:1005400090E0A0E0B0E0A82AB92ACA2ADB2A3196B6
:10055000E032F10549F0660C771C881C991C569412
:10056000479437942794C3CFFA85EA892B893C892D
:100570008B859C85280F391F2E5F3F4F17C0CA01FE
:1005800081709070892B61F016950795F794E79428
:1005900080E090E0A0E0B0E8E82AF92A0A2B1B2BC3
:1005A00076956795579547952F5F3F4F77FDE7CF36
:1005B0000CC0440F551F661F771F17FD4160EE0CDE
:1005C000FF1C001F111F21503040403090E05907A0
:1005D00090E0690790E4790760F32B8F3C8FDB0193
:1005E000CA018F779070A070B07080349105A1051A
:1005F000B10561F447FD0AC0E114F10401051105DC
:1006000029F0405C5F4F6F4F7F4F40781A8EFE1786
:1006100011F081E08A8F4D8F5E8F6F8F78A383E01A
:10062000898FCE0149960E94A904A096E2E10C941C
:10063000EC12A8E1B0E0EFE1F3E00C94D81269838A
:100640007A838B839C832D833E834F835887B9E0C5
:10065000EB2EF12CEC0EFD1ECE010196B7010E948F
:100660007E058E010F5E1F4FCE010596B8010E94D8
:100670007E052985223008F47EC03989323010F495
:10068000B8017CC08A859A8989278A87243011F02D
:10069000223031F4231709F06EC060E670E06EC0BE
:1006A000343039F41D861E861F86188A1C861B86E8
:1006B00004C0323021F484E08987B7015FC02B8504
:1006C0003C858B899C89281B390B3C872B87ED84C3
:1006D000FE840F851889AD88BE88CF88D88CEA142F
:1006E000FB040C051D0540F4EE0CFF1C001F111F40
:1006F000215030403C872B8720E030E040E050E044
:1007000080E090E0A0E0B0E460E070E0EA14FB0478
:100710000C051D0540F0282B392B4A2B5B2BEA18C2
:10072000FB080C091D09B695A79597958795EE0CC2
:10073000FF1C001F111F6F5F7F4F6F31710531F775
:10074000DA01C9018F779070A070B0708034910584
:10075000A105B10561F427FD0AC0E114F10401050A
:10076000110529F0205C3F4F4F4F5F4F20782D87B8
:100770003E874F87588BBE01675F7F4FCB010E943A
:10078000A9046896EAE00C94F412A8E1B0E0EBEC5E
:10079000F3E00C94DC1269837A838B839C832D8332
:1007A0003E834F83588789E0E82EF12CEC0EFD1E26
:1007B000CE010196B7010E947E058E010F5E1F4F8C
:1007C000CE010596B8010E947E058985823040F0F1
:1007D0008989823028F0C701B8010E94F60501C05E
:1007E0008FEF6896E6E00C94F812A8E1B0E0EBEF2A
:1007F000F3E00C94DC1269837A838B839C832D83D2
:100800003E834F83588789E0E82EF12CEC0EFD1EC5
:10081000CE010196B7010E947E058E010F5E1F4F2B
:10082000CE010596B8010E947E058985823040F090
:100830008989823028F0C701B8010E94F60501C0FD
:100840008FEF6896E6E00C94F812A8E1B0E0EBE2D6
:10085000F4E00C94DC1269837A838B839C832D8370
:100860003E834F83588789E0E82EF12CEC0EFD1E65
:10087000CE010196B7010E947E058E010F5E1F4FCB
:10088000CE010596B8010E947E058985823040F030
:100890008989823028F0C701B8010E94F60501C09D
:1008A00081E06896E6E00C94F812ACE0B0E0EBE58D
:1008B000F4E00C94E01269837A838B839C83CE01ED
:1008C0000196BE016B5F7F4F0E947E058D81823055
:1008D00061F1823050F1843021F48E81882351F10E
:1008E0002EC02F81388537FD20C06E812F31310514
:1008F0001CF06623F9F023C08EE190E0821B930B7D
:1009000029853A854B855C8504C056954795379572
:1009100027958A95D2F76623B1F05095409530958A
:1009200021953F4F4F4F5F4F0EC020E030E040E039
:1009300050E009C02FEF3FEF4FEF5FE704C020E02A
:1009400030E040E050E8B901CA012C96E2E00C9496
:10095000FC12DF92EF92FF920F931F93FC01E48051
:10096000F58006811781D1808081823048F480E053
:1009700090E0A0E1B0E0E82AF92A0A2B1B2BA5C0E1
:10098000843009F49FC0823021F4EE24FF248701D3
:1009900005C0E114F1040105110519F4E0E0F0E0EF
:1009A00096C0628173819FEF623879070CF05BC05B
:1009B00022E83FEF261B370B2A3131052CF020E0CF
:1009C00030E040E050E02AC0B801A701022E04C088
:1009D00076956795579547950A94D2F781E090E010
:1009E000A0E0B0E004C0880F991FAA1FBB1F2A9582
:1009F000D2F70197A109B1098E219F21A023B1232C
:100A00000097A105B10521F081E090E0A0E0B0E001
:100A10009A01AB01282B392B4A2B5B2BDA01C90138
:100A20008F779070A070B07080349105A105B105EA
:100A300039F427FF09C0205C3F4F4F4F5F4F04C080
:100A4000215C3F4F4F4F5F4FE0E0F0E02030A0E0EF
:100A50003A07A0E04A07A0E45A0710F0E1E0F0E00E
:100A600079018A0127C06038710564F5FB01E158FE
:100A7000FF4FD801C7018F779070A070B07080349D
:100A80009105A105B10539F4E7FE0DC080E490E0C1
:100A9000A0E0B0E004C08FE390E0A0E0B0E0E80E9A
:100AA000F91E0A1F1B1F17FF05C016950795F7941F
:100AB000E794319687E016950795F794E7948A9521
:100AC000D1F705C0EE24FF248701EFEFF0E06E2F91
:100AD000679566276795902F9F77D794DD24D794E5
:100AE0008E2F8695492F462B582F5D29B701CA01B5
:100AF0001F910F91FF90EF90DF900895FC01DB01B3
:100B0000408151812281622F6F7770E0221F22275E
:100B1000221F9381892F880F822B282F30E0991F65
:100B20009927991F11969C93119721153105A9F5C5
:100B3000411551056105710511F482E037C082E865
:100B40009FEF13969C938E9312979A01AB0167E0E7
:100B5000220F331F441F551F6A95D1F783E08C93F2
:100B60000DC0220F331F441F551F12968D919C916B
:100B70001397019713969C938E931297203080E0E1
:100B8000380780E0480780E4580758F314962D93FF
:100B90003D934D935C93179708952F3F310579F45A
:100BA000411551056105710519F484E08C93089590
:100BB00064FF03C081E08C9312C01C9210C02F57B9
:100BC000304013963C932E93129783E08C9387E0EA
:100BD000440F551F661F771F8A95D1F770641496CE
:100BE0004D935D936D937C93179708951F93DC014C
:100BF000FB019C91923008F447C08081823008F458
:100C000043C0943051F411961C91843099F5818140
:100C1000682F70E0611B71093FC0843021F0923071
:100C200031F48230B9F18181882389F12DC0119688
:100C30001C9111978230F1F081811817D9F4129626
:100C40002D913C911397828193818217930794F0A1
:100C500028173907BCF014968D919D910D90BC9189
:100C6000A02D2481358146815781281739074A07ED
:100C70005B0718F4112341F00AC082179307A407F9
:100C8000B50740F4112319F061E070E005C06FEF83
:100C90007FEF02C060E070E0CB011F910895DF9309
:100CA000CF9300D000D000D0CDB7DEB78A836B835E
:100CB0004C8319828A81843018F081E08983E0C0F6
:100CC0008B81883018F081E08983DAC08C81882399
:100CD00031F08C81813019F081E08983D1C08A8123
:100CE000282F30E03E832D838D819E8181309105B8
:100CF00009F443C02D813E81223031052CF48D81D1
:100D00009E81009771F0BCC02D813E81223031055B
:100D100009F45FC08D819E818330910509F485C0FF
:100D2000AFC08C818130A1F4AAE3B0E0EAE3F0E047
:100D30008081482F8B81282F30E081E090E0022EC7
:100D400002C0880F991F0A94E2F7842B8C9398C0F5
:100D5000AAE3B0E0EAE3F0E08081482F8B81282FFE
:100D600030E081E090E0022E02C0880F991F0A94C3
:100D7000E2F7809584238C9383C08C818130A1F429
:100D8000A7E3B0E0E7E3F0E08081482F8B81282FD4
:100D900030E081E090E0022E02C0880F991F0A9493
:100DA000E2F7842B8C936CC0A7E3B0E0E7E3F0E0BC
:100DB0008081482F8B81282F30E081E090E0022E47
:100DC00002C0880F991F0A94E2F7809584238C93C0
:100DD00057C08C818130A1F4A4E3B0E0E4E3F0E0FB
:100DE0008081482F8B81282F30E081E090E0022E17
:100DF00002C0880F991F0A94E2F7842B8C9340C09D
:100E0000A4E3B0E0E4E3F0E08081482F8B81282F59
:100E100030E081E090E0022E02C0880F991F0A9412
:100E2000E2F7809584238C932BC08C818130A1F4D0
:100E3000A1E3B0E0E1E3F0E08081482F8B81282F2F
:100E400030E081E090E0022E02C0880F991F0A94E2
:100E5000E2F7842B8C9314C0A1E3B0E0E1E3F0E06F
:100E60008081482F8B81282F30E081E090E0022E96
:100E700002C0880F991F0A94E2F7809584238C930F
:100E8000898126960FB6F894DEBF0FBECDBFCF91F5
:100E9000DF910895DF93CF9300D000D000D0CDB77D
:100EA000DEB78A836B834C8319828A81843018F081
:100EB00081E08983E0C08B81883018F081E08983EC
:100EC000DAC08C81813031F08C81882319F081E087
:100ED0008983D1C08A81282F30E03E832D838D8184
:100EE0009E818130910509F443C02D813E812230DD
:100EF00031052CF48D819E81009771F0BCC02D814D
:100F00003E812230310509F45FC08D819E8183309E
:100F1000910509F485C0AFC08C818130A1F4ABE3A9
:100F2000B0E0EBE3F0E08081482F8B81282F30E0A8
:100F300081E090E0022E02C0880F991F0A94E2F728
:100F4000842B8C9398C0ABE3B0E0EBE3F0E08081BE
:100F5000482F8B81282F30E081E090E0022E02C0E4
:100F6000880F991F0A94E2F7809584238C9383C09D
:100F70008C818130A1F4A8E3B0E0E8E3F0E0808167
:100F8000482F8B81282F30E081E090E0022E02C0B4
:100F9000880F991F0A94E2F7842B8C936CC0A8E306
:100FA000B0E0E8E3F0E08081482F8B81282F30E02B
:100FB00081E090E0022E02C0880F991F0A94E2F7A8
:100FC000809584238C9357C08C818130A1F4A5E354
:100FD000B0E0E5E3F0E08081482F8B81282F30E0FE
:100FE00081E090E0022E02C0880F991F0A94E2F778
:100FF000842B8C9340C0A5E3B0E0E5E3F0E0808172
:10100000482F8B81282F30E081E090E0022E02C033
:10101000880F991F0A94E2F7809584238C932BC044
:101020008C818130A1F4A2E3B0E0E2E3F0E08081C2
:10103000482F8B81282F30E081E090E0022E02C003
:10104000880F991F0A94E2F7842B8C9314C0A2E3B3
:10105000B0E0E2E3F0E08081482F8B81282F30E080
:1010600081E090E0022E02C0880F991F0A94E2F7F7
:10107000809584238C93898126960FB6F894DEBFE1
:101080000FBECDBFCF91DF910895DF93CF9300D0F6
:1010900000D00F92CDB7DEB78A836B8319828A8125
:1010A000843018F081E0898332C08A81282F30E0B3
:1010B0003D832C838C819D8181309105D1F02C81E1
:1010C0003D81223031052CF48C819D81009761F0A7
:1010D0001EC02C813D812230310581F08C819D81A3
:1010E0008330910581F013C0EBE3F0E08B818083C6
:1010F0000EC0E8E3F0E08B81808309C0E5E3F0E017
:101100008B81808304C0E2E3F0E08B81808389815E
:101110000F900F900F900F900F90CF91DF91089547
:10112000DF93CF9300D000D00F92CDB7DEB78A8384
:101130006B8319828A81843018F081E0898332C000
:101140008A81282F30E03D832C838C819D818130E2
:101150009105D1F02C813D81223031052CF48C8118
:101160009D81009761F01EC02C813D8122303105A8
:1011700081F08C819D818330910581F013C0EAE379
:10118000F0E08B8180830EC0E7E3F0E08B81808309
:1011900009C0E4E3F0E08B81808304C0E1E3F0E088
:1011A0008B81808389810F900F900F900F900F900B
:1011B000CF91DF910895DF93CF93CDB7DEB7279717
:1011C0000FB6F894DEBF0FBECDBF8A836B835D83FD
:1011D0004C8319828A81843018F081E0898376C03B
:1011E0008B81883018F081E0898370C08A81282F34
:1011F00030E03F832E834E815F814130510559F1AC
:101200008E819F818230910534F42E813F8121159A
:10121000310569F05BC04E815F814230510579F143
:101220008E819F818330910509F43DC04FC0E9E371
:10123000F0E08081282F30E08B81882F90E0A90199
:1012400002C0559547958A95E2F7CA018170EC81F5
:10125000FD8180833BC0E6E3F0E08081282F30E011
:101260008B81882F90E0A90102C0559547958A95FA
:10127000E2F7CA018170EC81FD81808327C0E3E33E
:10128000F0E08081282F30E08B81882F90E0A90149
:1012900002C0559547958A95E2F7CA018170EC81A5
:1012A000FD81808313C0E0E3F0E08081282F30E0EF
:1012B0008B81882F90E0A90102C0559547958A95AA
:1012C000E2F7CA018170EC81FD81808389812796D4
:1012D0000FB6F894DEBF0FBECDBFCF91DF9108955A
:1012E000DF93CF9300D000D00F92CDB7DEB71B8233
:1012F0001A825EC08A81882F90E0FC01E459FF4F7A
:10130000908182E0692F40E00E944A0719823DC027
:101310008981882F90E0FC01E859FF4F90819E0160
:101320002C5F3F4F82E0692FA9010E94DB088C816E
:10133000882341F58981482F50E08A81282F30E0A9
:10134000CA01880F991F880F991F820F931FFC01F4
:10135000E059FF4F80818B830FC08981882F90E0F7
:10136000FC01E859FF4F90819E012C5F3F4F82E0C6
:10137000692FA9010E94DB088C81882371F38B817E
:101380008D831CC089818F5F89838981843008F4B3
:10139000BFCF8A81882F90E0FC01E459FF4F9081F4
:1013A00082E0692F41E00E944A078A818F5F8A8329
:1013B0008A81843008F49ECF8B818D838D810F903C
:1013C0000F900F900F900F90CF91DF910895DF93C2
:1013D000CF9300D000D0CDB7DEB71C821B8211C0E6
:1013E0009B8182E0692F41E00E944F069B8182E051
:1013F000692F41E00E944A078B819C8101969C8362
:101400008B838B819C818430910554F387E090E03D
:101410009A83898311C0998182E0692F40E00E94FC
:101420004F06998182E0692F41E00E944A07898135
:101430009A8101979A83898389819A818430910561
:1014400054F70F900F900F900F90CF91DF91089568
:10145000DF93CF9300D00F92CDB7DEB78B838B8114
:101460008B32F1F08B818336D9F08B818D33C1F0D3
:101470008B818D32A9F08B818A3291F08B818F32F2
:1014800079F080918000882F90E0FC01EF57FF4FAA
:101490008B818083809180008F5F809380003DC02E
:1014A0008B818B3261F08B818D3349F08B818D3252
:1014B00031F08B818A3219F08B818F3271F58091F6
:1014C0008000882F90E0FC01EF57FF4F10822091A1
:1014D000800081E890E0622F0E94930A8091800052
:1014E000882F90E09A8389830BC089819A81FC01BF
:1014F000EF57FF4F108289819A8101979A838983E0
:1015000089819A8199238CF78B81882F90E0A0E0C4
:10151000B0E0BC01CD010E940A0B0F900F900F901C
:10152000CF91DF910895DF93CF93CDB7DEB7619769
:101530000FB6F894DEBF0FBECDBF988B8F87698B37
:1015400081E090E0A0E0B0E08F839887A987BA8718
:101550001B821C821D821E828989882F90E0019740
:101560009A83898341C029813A818F859889FC01BA
:10157000E20FF31F8081882F90E0A0E0B0E08B871E
:101580009C87AD87BE878B859C85AD85BE852F8169
:10159000388549855A85BC01CD010E948F129B0177
:1015A000AC018B819C81AD81BE81820F931FA41FF2
:1015B000B51F8B839C83AD83BE838F819885A9855E
:1015C000BA852AE030E040E050E0BC01CD010E9445
:1015D0008F12DC01CB018F839887A987BA87898115
:1015E0009A8101979A83898389819A8199230CF042
:1015F000BACF8B819C81AD81BE81BC01CD010E949F
:101600000A0B61960FB6F894DEBF0FBECDBFCF9127
:10161000DF910895DF93CF93CDB7DEB72A970FB64A
:10162000F894DEBF0FBECDBF69837A838B839C8322
:1016300080919A0090919B00A0919C00B0919D0098
:101640000097A105B105F9F489819A81AB81BC812C
:101650008B329105A105B105B1F089819A81AB81E9
:10166000BC8183369105A105B10569F089819A8114
:10167000AB81BC8180939A0090939B00A0939C00C7
:10168000B0939D0086C189819A81AB81BC818B32E8
:101690009105A105B105E1F089819A81AB81BC81F9
:1016A0008D329105A105B10599F089819A81AB81AF
:1016B000BC818A329105A105B10551F089819A81D9
:1016C000AB81BC818F329105A105B10509F047C0FE
:1016D00089819A81AB81BC818F839887A987BA87DA
:1016E0008F819885A985BA858B329105A105B105B1
:1016F00031F18F819885A985BA858C329105A10534
:10170000B10550F48F819885A985BA858A329105F3
:10171000A105B105E1F03DC18F819885A985BA8504
:101720008D329105A105B10571F08F819885A9854C
:10173000BA858F329105A105B10569F02AC181E012
:101740008093950026C182E08093950022C183E0BA
:10175000809395001EC184E0809395001AC180910A
:10176000960090919700A0919800B09199000097F1
:10177000A105B105F9F489819A81AB81BC818B32D5
:101780009105A105B105B1F089819A81AB81BC8138
:1017900083369105A105B10569F089819A81AB81F4
:1017A000BC818093960090939700A0939800B0938B
:1017B0009900EFC089819A81AB81BC818D339105FD
:1017C000A105B10509F0CCC080919500A82FB0E02B
:1017D000BE83AD832D813E812230310509F441C0A5
:1017E0008D819E818330910534F4AD81BE81A1301D
:1017F000B10571F0CEC02D813E812330310509F451
:1018000059C08D819E818430910509F47EC0C1C08C
:1018100080919A0090919B00A0919C00B0919D00B6
:101820002091960030919700409198005091990036
:10183000820F931FA41FB51FBC01CD010E941A1176
:1018400010929A0010929B0010929C0010929D00A2
:1018500010929600109297001092980010929900A2
:1018600098C080919A0090919B00A0919C00B091AB
:101870009D002091960030919700409198005091E2
:101880009900821B930BA40BB50BBC01CD010E94E8
:101890001A1110929A0010929B0010929C001092C4
:1018A0009D0010929600109297001092980010924E
:1018B00099006FC080919A0090919B00A0919C002C
:1018C000B0919D0020919600309197004091980032
:1018D00050919900BC01CD010E948F12DC01CB0117
:1018E000BC01CD010E941A1110929A0010929B0027
:1018F00010929C0010929D001092960010929700FA
:10190000109298001092990044C080919A00909192
:101910009B00A0919C00B0919D0020919600309179
:1019200097004091980050919900BC01CD010E9410
:10193000AE12DA01C901BC01CD010E941A11109248
:101940009A0010929B0010929C0010929D001092A1
:10195000960010929700109298001092990019C06A
:1019600089819A81AB81BC8183369105A105B1053E
:1019700081F410929A0010929B0010929C00109299
:101980009D0010929600109297001092980010926D
:1019900099002A960FB6F894DEBF0FBECDBFCF9147
:1019A000DF910895DF93CF930F92CDB7DEB7898390
:1019B00080E060E040E00E944A0789810E94F60CC6
:1019C0000F90CF91DF910895DF93CF930F92CDB712
:1019D000DEB7898380E060E041E00E944A078981A8
:1019E0000E94F60C0F90CF91DF910895DF93CF9373
:1019F000CDB7DEB761970FB6F894DEBF0FBECDBF8F
:101A0000898B80E061E040E00E944A07188A1F86C7
:101A100016C02F858989882F90E00F8402C0959584
:101A200087950A94E2F7982F917083E0622F492FEF
:101A30000E944A078F8598890196988B8F878F859A
:101A40009889883091052CF380E062E041E00E94A3
:101A50004A0780E090E0A0E8BFE38B879C87AD87D2
:101A6000BE876B857C858D859E8520E030E04AEFC2
:101A700054E40E941F02DC01CB018F839887A98761
:101A8000BA876F81788589859A8520E030E040E8C3
:101A90005FE30E94250488232CF481E090E09E837C
:101AA0008D833FC06F81788589859A8520E03FEFDF
:101AB0004FE757E40E94C50318164CF56B857C85EB
:101AC0008D859E8520E030E040E251E40E941F02B7
:101AD000DC01CB01BC01CD010E944900DC01CB013E
:101AE0009E838D830FC088EC90E09C838B838B81D9
:101AF0009C810197F1F79C838B838D819E81019757
:101B00009E838D838D819E81009769F714C06F81BC
:101B1000788589859A850E944900DC01CB019E83E6
:101B20008D838D819E819A83898389819A81019792
:101B3000F1F79A83898380E062E040E00E944A07DF
:101B400061960FB6F894DEBF0FBECDBFCF91DF9187
:101B500008950F931F93DF93CF93CDB7DEB7CC5487
:101B6000D0400FB6F894DEBF0FBECDBF83E06FEF5D
:101B70000E94900880E060E041E00E944F0680E013
:101B800061E041E00E944F0680E062E041E00E9497
:101B90004F06FE01E75BFF4F80E090E0A0E2B2E479
:101BA00080839183A283B3838E010B5B1F4FFE0161
:101BB000E75BFF4F608171818281938120E030E09B
:101BC0004AEF54E40E941F02DC01CB01F80180833C
:101BD0009183A283B383FE01EB5BFF4F6081718130
:101BE0008281938120E030E040E85FE30E94250499
:101BF000882344F4FE01ED5BFF4F81E090E0918388
:101C0000808364C0FE01EB5BFF4F60817181828144
:101C1000938120E03FEF4FE757E40E94C503181679
:101C20000CF043C0FE01E75BFF4F60817181828150
:101C3000938120E030E040E251E40E941F02DC0189
:101C4000CB018E010D5B1F4FBC01CD010E944900ED
:101C5000DC01CB01F801918380831FC0FE01EF5BA3
:101C6000FF4F88EC90E091838083FE01EF5BFF4F94
:101C7000808191810197F1F7FE01EF5BFF4F918326
:101C80008083DE01AD5BBF4FFE01ED5BFF4F8081C6
:101C90009181019711969C938E93FE01ED5BFF4F0E
:101CA000808191810097D1F624C08E010D5B1F4F7A
:101CB000FE01EB5BFF4F60817181828193810E9405
:101CC0004900DC01CB01F80191838083FE01ED5BCB
:101CD000FF4F80819181FE01FF9691838083FE01F9
:101CE000FF96808191810197F1F7FE01FF96918324
:101CF000808388E30E94D20C80E090E0A8E4B2E404
:101D00008BAF9CAFADAFBEAF6BAD7CAD8DAD9EADBF
:101D10002BEA3AEA4AE250E40E941F02DC01CB01BE
:101D20008FAB98AFA9AFBAAF6FA978AD89AD9AADB7
:101D300020E030E040E85FE30E94250488231CF4A3
:101D400081E08EAB91C06FA978AD89AD9AAD20E0EE
:101D500030E04FE753E40E94C50318160CF07BC037
:101D60006BAD7CAD8DAD9EAD20E030E04AE754E434
:101D70000E941903DC01CB018AAB9BABACABBDABC2
:101D80006AA97BA98CA99DA920E030E04AEF54E420
:101D90000E941F02DC01CB018EA79FA7A8ABB9ABA5
:101DA0006EA57FA588A999A920E030E040E85FE30F
:101DB0000E94250488232CF481E090E09DA78CA745
:101DC0003FC06EA57FA588A999A920E03FEF4FE706
:101DD00057E40E94C50318164CF56AA97BA98CA983
:101DE0009DA920E030E040E251E40E941F02DC01A6
:101DF000CB01BC01CD010E944900DC01CB019DA7B4
:101E00008CA70FC088EC90E09BA78AA78AA59BA50A
:101E10000197F1F79BA78AA78CA59DA501979DA780
:101E20008CA78CA59DA5009769F724C06EA57FA5FA
:101E300088A999A90E944900DC01CB019DA78CA724
:101E40008CA59DA599A788A788A599A50197F1F7C5
:101E500099A788A70FC06FA978AD89AD9AAD0E94E8
:101E60004900DC01CB018EAB8EA98FA38FA18A958F
:101E7000F1F78FA38CE00E94D20C80E090E0A8E400
:101E8000B2E48BA39CA3ADA3BEA36BA17CA18DA147
:101E90009EA12BEA3AEA4AE250E40E941F02DC01CA
:101EA000CB018F8F98A3A9A3BAA36F8D78A189A125
:101EB0009AA120E030E040E85FE30E9425048823F7
:101EC0001CF481E08E8F91C06F8D78A189A19AA1B9
:101ED00020E030E04FE753E40E94C50318160CF0F1
:101EE0007BC06BA17CA18DA19EA120E030E04AE7E0
:101EF00054E40E941903DC01CB018A8F9B8FAC8FC5
:101F0000BD8F6A8D7B8D8C8D9D8D20E030E04AEFFA
:101F100054E40E941F02DC01CB018E8B9F8BA88FA3
:101F2000B98F6E897F89888D998D20E030E040E8F7
:101F30005FE30E94250488232CF481E090E09D8BD0
:101F40008C8B3FC06E897F89888D998D20E03FEF13
:101F50004FE757E40E94C50318164CF56A8D7B8D38
:101F60008C8D9D8D20E030E040E251E40E941F0204
:101F7000DC01CB01BC01CD010E944900DC01CB0199
:101F80009D8B8C8B0FC088EC90E09B8B8A8B8A8911
:101F90009B890197F1F79B8B8A8B8C899D8901978F
:101FA0009D8B8C8B8C899D89009769F724C06E89E5
:101FB0007F89888D998D0E944900DC01CB019D8B22
:101FC0008C8B8C899D89998B888B888999890197BD
:101FD000F1F7998B888B0FC06F8D78A189A19AA199
:101FE0000E944900DC01CB018E8F8E8D8F878F85FB
:101FF0008A95F1F78F8781E00E94D20C80E090E013
:10200000A0E0B0E48B879C87AD87BE876B857C851D
:102010008D859E8520E030E04AEF54E40E941F0247
:10202000DC01CB018F839887A987BA876F81788578
:1020300089859A8520E030E040E85FE30E9425042E
:1020400088232CF481E090E09E838D833FC06F81D4
:10205000788589859A8520E03FEF4FE757E40E9415
:10206000C50318164CF56B857C858D859E8520E013
:1020700030E040E251E40E941F02DC01CB01BC01D0
:10208000CD010E944900DC01CB019E838D830FC0EE
:1020900088EC90E09C838B838B819C810197F1F786
:1020A0009C838B838D819E8101979E838D838D81FF
:1020B0009E81009769F714C06F81788589859A851C
:1020C0000E944900DC01CB019E838D838D819E811E
:1020D0009A83898389819A810197F1F79A83898309
:1020E000C45BDF4F0FB6F894DEBF0FBECDBFCF91FC
:1020F000DF911F910F910895DF93CF9300D00F923E
:10210000CDB7DEB79B838A8319820EC08981282FC1
:1021100030E08A819B81FC01E20FF31F80810E94E5
:10212000E40C89818F5F89838981282F30E08A813F
:102130009B81FC01E20FF31F8081882339F70F9008
:102140000F900F90CF91DF910895DF93CF9300D040
:1021500000D0CDB7DEB78B836C8319828B81823040
:10216000A0F48C81803188F48B81882319F48C81D0
:102170008A8306C08B81813019F48C81805C8A83CC
:102180008A8180580E94D20C02C081E089838981B3
:102190000F900F900F900F90CF91DF910895DF93E4
:1021A000CF93CDB7DEB727970FB6F894DEBF0FBE3B
:1021B000CDBF9C838B836D834E832F831A828D8149
:1021C000882F90E0880F991F880F991F880F991FFB
:1021D0008A838A81805C0E94D20C19820EC0898118
:1021E000282F30E08B819C81FC01E20FF31F80815E
:1021F0000E94E40C89818F5F89838981883078F31C
:102200008E816F810E94A5108D810E94E40C27961B
:102210000FB6F894DEBF0FBECDBFCF91DF9108950A
:10222000DF93CF93CDB7DEB781E00E94D20CCF9180
:10223000DF910895DF93CF93CDB7DEB76B970FB6DD
:10224000F894DEBF0FBECDBF688F798F8A8F9B8FCA
:102250001A821982888D998DAA8DBB8D0097A10550
:10226000B10509F041C08A81282F30E0CE010496E3
:10227000FC01E20FF31F80E380838A818F5F8A83F2
:1022800049C0888D998DAA8DBB8D2AE030E040E051
:1022900050E0BC01CD010E94AE12DC01CB018B836A
:1022A0008A81282F30E08B81482F405DCE01049633
:1022B000FC01E20FF31F40838A818F5F8A83888D40
:1022C000998DAA8DBB8D2AE030E040E050E0BC0142
:1022D000CD010E94AE12DA01C901888F998FAA8FB1
:1022E000BB8F89818F5F8983888D998DAA8DBB8DE6
:1022F0000097A105B10529F68A81282F30E0CE018B
:102300000496FC01E20FF31F1082CE01049669814E
:102310000E9493116B960FB6F894DEBF0FBECDBF2F
:10232000CF91DF910895DF93CF9300D000D00F922B
:10233000CDB7DEB79C838B836D831A828D818150EC
:10234000898319C08A81282F30E08B819C81AC0160
:10235000420F531F8981282F30E08B819C81280FE9
:10236000391FCA01B9010E94D1118A818F5F8A8306
:102370008981815089839A818981981718F38B818B
:102380009C8190939F0080939E008B819C810E94F2
:102390007C100F900F900F900F900F90CF91DF91C6
:1023A0000895DF93CF9300D000D000D0CDB7DEB733
:1023B0009C838B837E836D831A821982EB81FC81DF
:1023C0008081882F90E09A838983ED81FE818081CE
:1023D000EB81FC8180838981ED81FE81808326965B
:1023E0000FB6F894DEBF0FBECDBFCF91DF91089539
:1023F000DF93CF9300D000D0CDB7DEB769837A8367
:102400008B839C8389810E94E40C0F900F900F9026
:102410000F90CF91DF910895DF93CF9300D000D03C
:10242000CDB7DEB769837A838B839C8389819A8158
:10243000AB81BC818B329105A105B10521F1898168
:102440009A81AB81BC818D329105A105B105D9F08E
:1024500089819A81AB81BC818A329105A105B10540
:1024600091F089819A81AB81BC818F329105A10560
:10247000B10549F089819A81AB81BC818D33910589
:10248000A105B10549F489819A81AB81BC81BC0168
:10249000CD010E94F81114C089819A81AB81BC8161
:1024A00083369105A105B10519F40E94101108C0E9
:1024B00089819A81AB81BC81BC01CD010E941A1136
:1024C0000F900F900F900F90CF91DF910895DF93B1
:1024D000CF9300D000D0CDB7DEB70E94E7090E94AD
:1024E000A90D0E947009882F90E0A0E0B0E08983D8
:1024F0009A83AB83BC8389819A81AB81BC8100972D
:10250000A105B10571F389819A81AB81BC81BC01C0
:10251000CD010E940C1289810E94280AE2CF629F9D
:10252000D001739FF001829FE00DF11D649FE00DCB
:10253000F11D929FF00D839FF00D749FF00D659F2C
:10254000F00D9927729FB00DE11DF91F639FB00D2B
:10255000E11DF91FBD01CF0111240895A1E21A2E3A
:10256000AA1BBB1BFD010DC0AA1FBB1FEE1FFF1F37
:10257000A217B307E407F50720F0A21BB30BE40B87
:10258000F50B661F771F881F991F1A9469F76095CE
:102590007095809590959B01AC01BD01CF01089588
:1025A0002F923F924F925F926F927F928F929F9263
:1025B000AF92BF92CF92DF92EF92FF920F931F9351
:1025C000CF93DF93CDB7DEB7CA1BDB0B0FB6F89402
:1025D000DEBF0FBECDBF09942A88398848885F8442
:1025E0006E847D848C849B84AA84B984C884DF80B3
:1025F000EE80FD800C811B81AA81B981CE0FD11D97
:102600000FB6F894DEBF0FBECDBFED010895F8946C
:02261000FFCFFA
:10261200000000000000000004050607000102039C
:102622000102030405060708092B2D2A2F3D63101A
:00000001FF
