:100000000C942A000C943F000C943F000C943F0089
:100010000C943F000C943F000C943F000C943F0064
:100020000C943F000C943F000C943F000C943F0054
:100030000C943F000C943F000C943F000C943F0044
:100040000C943F000C943F000C943F000C943F0034
:100050000C943F0011241FBECFE5D8E0DEBFCDBF1A
:1000600010E0A0E6B0E0E4E0FBE202C005900D92F3
:10007000A038B107D9F70E94D10F0C9480150C94C9
:100080000000EF92FF920F931F937B018C0120E001
:1000900030E040E05FE40E94ED0388238CF0C8016B
:1000A000B70120E030E040E05FE40E94B9010E9427
:1000B0004D049B01AC01205030404040504806C0E8
:1000C000C801B7010E944D049B01AC01B901CA01EE
:1000D0001F910F91FF90EF900895A0E0B0E0E3E74B
:1000E000F0E00C944915DC012B01FA019C9192304F
:1000F00008F439C1EB018881823008F433C19430AF
:1001000069F4843009F02FC111969C91119789816F
:10011000981709F428C1A0E6B0E025C1843009F49D
:1001200021C18230A9F4923009F01DC19A01AD01BC
:1001300088E0EA010990AE01E90109929E0181502F
:10014000C1F7E201898111969C918923818308C1BD
:10015000923009F407C112962D903C901397EB0151
:100160008A819B811496AD90BD90CD90DC901797BD
:10017000EC80FD800E811F819101281B390BB90194
:1001800037FF04C066277727621B730B6032710547
:100190000CF061C0121613066CF537014801062EEB
:1001A00004C096948794779467940A94D2F721E0D8
:1001B00030E040E050E004C0220F331F441F551FC1
:1001C0006A95D2F721503040404050402E213F21C7
:1001D00040235123211531054105510521F021E02E
:1001E00030E040E050E079018A01E628F72808294C
:1001F00019293CC0232BD1F1260E371E35014601AB
:10020000062E04C096948794779467940A94D2F744
:1002100021E030E040E050E004C0220F331F441FD3
:10022000551F6A95D2F721503040404050402A2156
:100230003B214C215D21211531054105510521F05E
:1002400021E030E040E050E059016A01A628B728DB
:10025000C828D9280BC0821593052CF01C01AA24AC
:10026000BB24650103C0EE24FF24870111969C91F5
:10027000D20111968C91981709F445C0992339F051
:10028000A80197012A193B094C095D0906C0A6017E
:1002900095012E193F09400B510B57FD08C01182E3
:1002A0003382228224833583468357831DC081E0B5
:1002B00081833382228288279927DC01821B930B5A
:1002C000A40BB50B84839583A683B7830DC0220F3F
:1002D000331F441F551F24833583468357838281F0
:1002E000938101979383828324813581468157814D
:1002F000DA01C9010197A109B1098F5F9F4FAF4F83
:10030000BF4328F30BC0918333822282EA0CFB1C8B
:100310000C1D1D1DE482F5820683178383E0808314
:10032000248135814681578157FF1AC0C901AA2708
:1003300097FDA095BA2F81709070A070B0705695FF
:10034000479537952795822B932BA42BB52B848328
:100350009583A683B7838281938101969383828359
:10036000DF0101C0D201CD01CDB7DEB7E2E10C94CF
:100370006515A0E2B0E0EFEBF1E00C945515698350
:100380007A838B839C832D833E834F835887E9E058
:10039000EE2EF12CEC0EFD1ECE010196B7010E944F
:1003A00076058E010F5E1F4FCE010596B8010E94A3
:1003B00076058A8991E089278A8BC701B801AE0149
:1003C000475E5F4F0E946D000E94A104A096E6E088
:1003D0000C947115A0E2B0E0E0EFF1E00C9455153B
:1003E00069837A838B839C832D833E834F835887D5
:1003F000F9E0EF2EF12CEC0EFD1ECE010196B701B7
:100400000E9476058E010F5E1F4FCE010596B80142
:100410000E947605C701B801AE01475E5F4F0E949A
:100420006D000E94A104A096E6E00C947115A0E274
:10043000B0E0EDE1F2E00C94491569837A838B8397
:100440009C832D833E834F835887CE010196BE0146
:10045000675F7F4F0E947605CE010596BE016F5EF5
:100460007F4F0E9476059985923088F08989823085
:10047000C8F0943019F4823051F404C0843029F467
:10048000923081F480E690E0C6C0923049F420E0DA
:100490009A858A89981321E02A87CE010996BBC0E4
:1004A000823049F420E09A858A89981321E02A8BCA
:1004B000CE014196B0C02D843E844F8458886D880B
:1004C0007E888F88988CEE24FF248701AA24BB2481
:1004D000650140E050E060E070E0E0E0F0E0C10184
:1004E00081709070892BE9F0E60CF71C081D191D2E
:1004F0009A01AB012A0D3B1D4C1D5D1D80E090E073
:10050000A0E0B0E0E614F7040805190520F481E046
:1005100090E0A0E0B0E0BA01A901480F591F6A1F9E
:100520007B1FAA0CBB1CCC1CDD1C97FE08C081E005
:1005300090E0A0E0B0E0A82AB92ACA2ADB2A3196C6
:10054000E032F10549F0660C771C881C991C569422
:10055000479437942794C3CFFA85EA892B893C893D
:100560008B859C85280F391F2E5F3F4F17C0CA010E
:1005700081709070892B61F016950795F794E79438
:1005800080E090E0A0E0B0E8E82AF92A0A2B1B2BD3
:1005900076956795579547952F5F3F4F77FDE7CF46
:1005A0000CC0440F551F661F771F17FD4160EE0CEE
:1005B000FF1C001F111F21503040403090E05907B0
:1005C00090E0690790E4790760F32B8F3C8FDB01A3
:1005D000CA018F779070A070B07080349105A1052A
:1005E000B10561F447FD0AC0E114F10401051105EC
:1005F00029F0405C5F4F6F4F7F4F40781A8EFE1797
:1006000011F081E08A8F4D8F5E8F6F8F78A383E02A
:10061000898FCE0149960E94A104A096E2E10C9434
:100620006515A8E1B0E0E7E1F3E00C9451156983AA
:100630007A838B839C832D833E834F835887B9E0D5
:10064000EB2EF12CEC0EFD1ECE010196B7010E949F
:1006500076058E010F5E1F4FCE010596B8010E94F0
:1006600076052985223008F47EC03989323010F4AD
:10067000B8017CC08A859A8989278A87243011F03D
:10068000223031F4231709F06EC060E670E06EC0CE
:10069000343039F41D861E861F86188A1C861B86F8
:1006A00004C0323021F484E08987B7015FC02B8514
:1006B0003C858B899C89281B390B3C872B87ED84D3
:1006C000FE840F851889AD88BE88CF88D88CEA143F
:1006D000FB040C051D0540F4EE0CFF1C001F111F50
:1006E000215030403C872B8720E030E040E050E054
:1006F00080E090E0A0E0B0E460E070E0EA14FB0489
:100700000C051D0540F0282B392B4A2B5B2BEA18D2
:10071000FB080C091D09B695A79597958795EE0CD2
:10072000FF1C001F111F6F5F7F4F6F31710531F785
:10073000DA01C9018F779070A070B0708034910594
:10074000A105B10561F427FD0AC0E114F10401051A
:10075000110529F0205C3F4F4F4F5F4F20782D87C8
:100760003E874F87588BBE01675F7F4FCB010E944A
:10077000A1046896EAE00C946D15A8E1B0E0E3EC02
:10078000F3E00C94551569837A838B839C832D83C6
:100790003E834F83588789E0E82EF12CEC0EFD1E36
:1007A000CE010196B7010E9476058E010F5E1F4FA4
:1007B000CE010596B8010E9476058985823040F009
:1007C0008989823028F0C701B8010E94EE0501C076
:1007D0008FEF6896E6E00C947115A8E1B0E0E3EFC6
:1007E000F3E00C94551569837A838B839C832D8366
:1007F0003E834F83588789E0E82EF12CEC0EFD1ED6
:10080000CE010196B7010E9476058E010F5E1F4F43
:10081000CE010596B8010E9476058985823040F0A8
:100820008989823028F0C701B8010E94EE0501C015
:100830008FEF6896E6E00C947115A8E1B0E0E3E272
:10084000F4E00C94551569837A838B839C832D8304
:100850003E834F83588789E0E82EF12CEC0EFD1E75
:10086000CE010196B7010E9476058E010F5E1F4FE3
:10087000CE010596B8010E9476058985823040F048
:100880008989823028F0C701B8010E94EE0501C0B5
:1008900081E06896E6E00C947115ACE0B0E0E3E529
:1008A000F4E00C94591569837A838B839C83CE0181
:1008B0000196BE016B5F7F4F0E9476058D8182306D
:1008C00061F1823050F1843021F48E81882351F11E
:1008D0002EC02F81388537FD20C06E812F31310524
:1008E0001CF06623F9F023C08EE190E0821B930B8D
:1008F00029853A854B855C8504C056954795379583
:1009000027958A95D2F76623B1F05095409530959A
:1009100021953F4F4F4F5F4F0EC020E030E040E049
:1009200050E009C02FEF3FEF4FEF5FE704C020E03A
:1009300030E040E050E8B901CA012C96E2E00C94A6
:100940007515DF92EF92FF920F931F93FC01E480E5
:10095000F58006811781D1808081823048F480E063
:1009600090E0A0E1B0E0E82AF92A0A2B1B2BA5C0F1
:10097000843009F49FC0823021F4EE24FF248701E3
:1009800005C0E114F1040105110519F4E0E0F0E0FF
:1009900096C0628173819FEF623879070CF05BC06B
:1009A00022E83FEF261B370B2A3131052CF020E0DF
:1009B00030E040E050E02AC0B801A701022E04C098
:1009C00076956795579547950A94D2F781E090E020
:1009D000A0E0B0E004C0880F991FAA1FBB1F2A9592
:1009E000D2F70197A109B1098E219F21A023B1233C
:1009F0000097A105B10521F081E090E0A0E0B0E012
:100A00009A01AB01282B392B4A2B5B2BDA01C90148
:100A10008F779070A070B07080349105A105B105FA
:100A200039F427FF09C0205C3F4F4F4F5F4F04C090
:100A3000215C3F4F4F4F5F4FE0E0F0E02030A0E0FF
:100A40003A07A0E04A07A0E45A0710F0E1E0F0E01E
:100A500079018A0127C06038710564F5FB01E1580E
:100A6000FF4FD801C7018F779070A070B0708034AD
:100A70009105A105B10539F4E7FE0DC080E490E0D1
:100A8000A0E0B0E004C08FE390E0A0E0B0E0E80EAA
:100A9000F91E0A1F1B1F17FF05C016950795F7942F
:100AA000E794319687E016950795F794E7948A9531
:100AB000D1F705C0EE24FF248701EFEFF0E06E2FA1
:100AC000679566276795902F9F77D794DD24D794F5
:100AD0008E2F8695492F462B582F5D29B701CA01C5
:100AE0001F910F91FF90EF90DF900895FC01DB01C3
:100AF000408151812281622F6F7770E0221F22276F
:100B0000221F9381892F880F822B282F30E0991F75
:100B10009927991F11969C93119721153105A9F5D5
:100B2000411551056105710511F482E037C082E875
:100B30009FEF13969C938E9312979A01AB0167E0F7
:100B4000220F331F441F551F6A95D1F783E08C9302
:100B50000DC0220F331F441F551F12968D919C917B
:100B60001397019713969C938E931297203080E0F1
:100B7000380780E0480780E4580758F314962D930F
:100B80003D934D935C93179708952F3F310579F46A
:100B9000411551056105710519F484E08C930895A0
:100BA00064FF03C081E08C9312C01C9210C02F57C9
:100BB000304013963C932E93129783E08C9387E0FA
:100BC000440F551F661F771F8A95D1F770641496DE
:100BD0004D935D936D937C93179708951F93DC015C
:100BE000FB019C91923008F447C08081823008F468
:100BF00043C0943051F411961C91843099F5818151
:100C0000682F70E0611B71093FC0843021F0923081
:100C100031F48230B9F18181882389F12DC0119698
:100C20001C9111978230F1F081811817D9F4129636
:100C30002D913C911397828193818217930794F0B1
:100C400028173907BCF014968D919D910D90BC9199
:100C5000A02D2481358146815781281739074A07FD
:100C60005B0718F4112341F00AC082179307A40709
:100C7000B50740F4112319F061E070E005C06FEF93
:100C80007FEF02C060E070E0CB011F910895DF9319
:100C9000CF93CDB7DEB7A6E2B0E0E6E2F0E0808128
:100CA00084608C93A6E2B0E0E6E2F0E080818260AE
:100CB0008C93A6E2B0E0E6E2F0E0808181608C9364
:100CC000A7E2B0E0E7E2F0E0808180648C93A7E2E5
:100CD000B0E0E7E2F0E080818F778C93A7E2B0E0AC
:100CE000E7E2F0E0808180628C93A6E2B0E0E6E289
:100CF000F0E0808180688C93CF91DF910895DF933D
:100D0000CF930F92CDB7DEB78983A7E2B0E0E7E2D9
:100D1000F0E08081807E8C93A7E2B0E0E7E2F0E033
:100D200090818981892B8C93A6E2B0E0E6E2F0E025
:100D3000808180648C93E6E2F0E0808182958F7000
:100D4000882F90E0817090700097A9F3A6E2B0E040
:100D5000E6E2F0E0808180618C93E5E2F0E0808162
:100D60000F90CF91DF910895DF93CF9300D00F9232
:100D7000CDB7DEB78B83A7E2B0E0E7E2F0E0808199
:100D8000807E8C93A7E2B0E0E7E2F0E090818B8177
:100D9000892B8C93A6E2B0E0E6E2F0E080818064EB
:100DA0008C93E6E2F0E0808182958F70882F90E04E
:100DB000817090700097A9F3A6E2B0E0E6E2F0E05F
:100DC000808180618C93E4E2F0E080818295869559
:100DD00086958370882F90E09A838983E5E2F0E01E
:100DE0008081882F90E09C01220F331F220F331F38
:100DF00089819A81822B932B9A83898389819A8115
:100E00000F900F900F90CF91DF910895DF93CF93C4
:100E100000D000D000D0CDB7DEB78A836B834C837F
:100E200019828A81843018F081E08983E0C08B8147
:100E3000883018F081E08983DAC08C81882331F012
:100E40008C81813019F081E08983D1C08A81282F7B
:100E500030E03E832D838D819E818130910509F4A0
:100E600043C02D813E81223031052CF48D819E813D
:100E7000009771F0BCC02D813E812230310509F40C
:100E80005FC08D819E818330910509F485C0AFC01C
:100E90008C818130A1F4AAE3B0E0EAE3F0E0808144
:100EA000482F8B81282F30E081E090E0022E02C095
:100EB000880F991F0A94E2F7842B8C9398C0AAE3B9
:100EC000B0E0EAE3F0E08081482F8B81282F30E00A
:100ED00081E090E0022E02C0880F991F0A94E2F789
:100EE000809584238C9383C08C818130A1F4A7E307
:100EF000B0E0E7E3F0E08081482F8B81282F30E0DD
:100F000081E090E0022E02C0880F991F0A94E2F758
:100F1000842B8C936CC0A7E3B0E0E7E3F0E0808122
:100F2000482F8B81282F30E081E090E0022E02C014
:100F3000880F991F0A94E2F7809584238C9357C0F9
:100F40008C818130A1F4A4E3B0E0E4E3F0E080819F
:100F5000482F8B81282F30E081E090E0022E02C0E4
:100F6000880F991F0A94E2F7842B8C9340C0A4E366
:100F7000B0E0E4E3F0E08081482F8B81282F30E05F
:100F800081E090E0022E02C0880F991F0A94E2F7D8
:100F9000809584238C932BC08C818130A1F4A1E3B4
:100FA000B0E0E1E3F0E08081482F8B81282F30E032
:100FB00081E090E0022E02C0880F991F0A94E2F7A8
:100FC000842B8C9314C0A1E3B0E0E1E3F0E08081D6
:100FD000482F8B81282F30E081E090E0022E02C064
:100FE000880F991F0A94E2F7809584238C93898156
:100FF00026960FB6F894DEBF0FBECDBFCF91DF911E
:101000000895DF93CF9300D000D000D0CDB7DEB7E6
:101010008A836B834C8319828A81843018F081E043
:101020008983E0C08B81883018F081E08983DAC041
:101030008C81813031F08C81882319F081E08983A3
:10104000D1C08A81282F30E03E832D838D819E81FF
:101050008130910509F443C02D813E812230310554
:101060002CF48D819E81009771F0BCC02D813E8152
:101070002230310509F45FC08D819E818330910556
:1010800009F485C0AFC08C818130A1F4ABE3B0E03E
:10109000EBE3F0E08081482F8B81282F30E081E066
:1010A00090E0022E02C0880F991F0A94E2F7842B69
:1010B0008C9398C0ABE3B0E0EBE3F0E08081482F85
:1010C0008B81282F30E081E090E0022E02C0880F53
:1010D000991F0A94E2F7809584238C9383C08C81B6
:1010E0008130A1F4A8E3B0E0E8E3F0E08081482F8C
:1010F0008B81282F30E081E090E0022E02C0880F23
:10110000991F0A94E2F7842B8C936CC0A8E3B0E09B
:10111000E8E3F0E08081482F8B81282F30E081E0E8
:1011200090E0022E02C0880F991F0A94E2F7809582
:1011300084238C9357C08C818130A1F4A5E3B0E067
:10114000E5E3F0E08081482F8B81282F30E081E0BB
:1011500090E0022E02C0880F991F0A94E2F7842BB8
:101160008C9340C0A5E3B0E0E5E3F0E08081482F38
:101170008B81282F30E081E090E0022E02C0880FA2
:10118000991F0A94E2F7809584238C932BC08C815D
:101190008130A1F4A2E3B0E0E2E3F0E08081482FE7
:1011A0008B81282F30E081E090E0022E02C0880F72
:1011B000991F0A94E2F7842B8C9314C0A2E3B0E049
:1011C000E2E3F0E08081482F8B81282F30E081E03E
:1011D00090E0022E02C0880F991F0A94E2F78095D2
:1011E00084238C93898126960FB6F894DEBF0FBEB8
:1011F000CDBFCF91DF910895DF93CF9300D000D082
:101200000F92CDB7DEB78A836B8319828A818430CF
:1012100018F081E0898332C08A81282F30E03D8335
:101220002C838C819D8181309105D1F02C813D8171
:10123000223031052CF48C819D81009761F01EC015
:101240002C813D812230310581F08C819D8183305C
:10125000910581F013C0EBE3F0E08B8180830EC039
:10126000E8E3F0E08B81808309C0E5E3F0E08B8167
:10127000808304C0E2E3F0E08B81808389810F905A
:101280000F900F900F900F90CF91DF910895DF9303
:10129000CF9300D000D00F92CDB7DEB78A836B8397
:1012A00019828A81843018F081E0898332C08A8172
:1012B000282F30E03D832C838C819D8181309105E6
:1012C000D1F02C813D81223031052CF48C819D811F
:1012D000009761F01EC02C813D812230310581F0E4
:1012E0008C819D818330910581F013C0EAE3F0E0A9
:1012F0008B8180830EC0E7E3F0E08B81808309C09F
:10130000E4E3F0E08B81808304C0E1E3F0E08B81D3
:10131000808389810F900F900F900F900F90CF9145
:10132000DF910895DF93CF93CDB7DEB727970FB640
:10133000F894DEBF0FBECDBF8A836B835D834C8381
:1013400019828A81843018F081E0898376C08B818C
:10135000883018F081E0898370C08A81282F30E0BE
:101360003F832E834E815F814130510559F18E813B
:101370009F818230910534F42E813F812115310502
:1013800069F05BC04E815F814230510579F18E81F9
:101390009F818330910509F43DC04FC0E9E3F0E03F
:1013A0008081282F30E08B81882F90E0A90102C036
:1013B000559547958A95E2F7CA018170EC81FD81C8
:1013C00080833BC0E6E3F0E08081282F30E08B8112
:1013D000882F90E0A90102C0559547958A95E2F7BC
:1013E000CA018170EC81FD81808327C0E3E3F0E0D6
:1013F0008081282F30E08B81882F90E0A90102C0E6
:10140000559547958A95E2F7CA018170EC81FD8177
:10141000808313C0E0E3F0E08081282F30E08B81EF
:10142000882F90E0A90102C0559547958A95E2F76B
:10143000CA018170EC81FD818083898127960FB676
:10144000F894DEBF0FBECDBFCF91DF910895DF933B
:10145000CF930F92CDB7DEB7898380E062E040E0A2
:101460000E94010889810E944B0A0F90CF91DF9161
:101470000895DF93CF930F92CDB7DEB7898380E0D5
:1014800062E041E00E94010889810E944B0A0F90AE
:10149000CF91DF910895DF93CF93CDB7DEB76197FA
:1014A0000FB6F894DEBF0FBECDBF898B80E061E040
:1014B00040E00E940108188A1F8616C02F8589897E
:1014C000882F90E00F8402C0959587950A94E2F7E3
:1014D000982F917082E0622F492F0E9401088F851A
:1014E00098890196988B8F878F8598898830910588
:1014F0002CF380E060E041E00E94010880E090E091
:10150000A0E8BFE38B879C87AD87BE876B857C8512
:101510008D859E8520E030E04AEF54E40E9417025A
:10152000DC01CB018F839887A987BA876F81788583
:1015300089859A8520E030E040E85FE30E941D0441
:1015400088232CF481E090E09E838D833FC06F81DF
:10155000788589859A8520E03FEF4FE757E40E9420
:10156000BD0318164CF56B857C858D859E8520E026
:1015700030E040E251E40E941702DC01CB01BC01E3
:10158000CD010E944100DC01CB019E838D830FC001
:1015900088EC90E09C838B838B819C810197F1F791
:1015A0009C838B838D819E8101979E838D838D810A
:1015B0009E81009769F714C06F81788589859A8527
:1015C0000E944100DC01CB019E838D838D819E8131
:1015D0009A83898389819A810197F1F79A83898314
:1015E00080E060E040E00E94010861960FB6F89448
:1015F000DEBF0FBECDBFCF91DF9108950F931F9334
:10160000DF93CF93CDB7DEB7CC54D0400FB6F8946C
:10161000DEBF0FBECDBF82E06FEF0E94470980E0C2
:1016200062E041E00E94060780E061E041E00E9444
:10163000060780E060E041E00E940607FE01E75BEC
:10164000FF4F80E090E0A0E2B2E480839183A28328
:10165000B3838E010B5B1F4FFE01E75BFF4F608181
:1016600071818281938120E030E04AEF54E40E944E
:101670001702DC01CB01F80180839183A283B3833D
:10168000FE01EB5BFF4F608171818281938120E0DD
:1016900030E040E85FE30E941D04882344F4FE012B
:1016A000ED5BFF4F81E090E09183808364C0FE0199
:1016B000EB5BFF4F608171818281938120E03FEF7E
:1016C0004FE757E40E94BD0318160CF043C0FE011B
:1016D000E75BFF4F608171818281938120E030E080
:1016E00040E251E40E941702DC01CB018E010D5B48
:1016F0001F4FBC01CD010E944100DC01CB01F8016C
:10170000918380831FC0FE01EF5BFF4F88EC90E068
:1017100091838083FE01EF5BFF4F80819181019770
:10172000F1F7FE01EF5BFF4F91838083DE01AD5B3C
:10173000BF4FFE01ED5BFF4F8081918101971196B4
:101740009C938E93FE01ED5BFF4F8081918100970A
:10175000D1F624C08E010D5B1F4FFE01EB5BFF4FE6
:1017600060817181828193810E944100DC01CB0103
:10177000F80191838083FE01ED5BFF4F80819181B1
:10178000FE01FF9691838083FE01FF968081918107
:101790000197F1F7FE01FF969183808388E30E9411
:1017A000270A80E090E0A8E4B2E48BAF9CAFADAF35
:1017B000BEAF6BAD7CAD8DAD9EAD2BEA3AEA4AE291
:1017C00050E40E941702DC01CB018FAB98AFA9AFA8
:1017D000BAAF6FA978AD89AD9AAD20E030E040E8AE
:1017E0005FE30E941D0488231CF481E08EAB91C04E
:1017F0006FA978AD89AD9AAD20E030E04FE753E4B2
:101800000E94BD0318160CF07BC06BAD7CAD8DAD96
:101810009EAD20E030E04AE754E40E941103DC0171
:10182000CB018AAB9BABACABBDAB6AA97BA98CA946
:101830009DA920E030E04AEF54E40E941702DC0149
:10184000CB018EA79FA7A8ABB9AB6EA57FA588A932
:1018500099A920E030E040E85FE30E941D0488235E
:101860002CF481E090E09DA78CA73FC06EA57FA5DA
:1018700088A999A920E03FEF4FE757E40E94BD03F4
:1018800018164CF56AA97BA98CA99DA920E030E027
:1018900040E251E40E941702DC01CB01BC01CD0102
:1018A0000E944100DC01CB019DA78CA70FC088ECF2
:1018B00090E09BA78AA78AA59BA50197F1F79BA714
:1018C0008AA78CA59DA501979DA78CA78CA59DA5F2
:1018D000009769F724C06EA57FA588A999A90E94E1
:1018E0004100DC01CB019DA78CA78CA59DA599A7E4
:1018F00088A788A599A50197F1F799A788A70FC090
:101900006FA978AD89AD9AAD0E944100DC01CB0191
:101910008EAB8EA98FA38FA18A95F1F78FA38CE050
:101920000E94270A80E090E0A8E4B2E48BA39CA385
:10193000ADA3BEA36BA17CA18DA19EA12BEA3AEA27
:101940004AE250E40E941702DC01CB018F8F98A37A
:10195000A9A3BAA36F8D78A189A19AA120E030E054
:1019600040E85FE30E941D0488231CF481E08E8F11
:1019700091C06F8D78A189A19AA120E030E04FE756
:1019800053E40E94BD0318160CF07BC06BA17CA130
:101990008DA19EA120E030E04AE754E40E941103AB
:1019A000DC01CB018A8F9B8FAC8FBD8F6A8D7B8DC5
:1019B0008C8D9D8D20E030E04AEF54E40E941702A8
:1019C000DC01CB018E8B9F8BA88FB98F6E897F89AD
:1019D000888D998D20E030E040E85FE30E941D048F
:1019E00088232CF481E090E09D8B8C8B3FC06E8926
:1019F0007F89888D998D20E03FEF4FE757E40E9463
:101A0000BD0318164CF56A8D7B8D8C8D9D8D20E065
:101A100030E040E251E40E941702DC01CB01BC013E
:101A2000CD010E944100DC01CB019D8B8C8B0FC04E
:101A300088EC90E09B8B8A8B8A899B890197F1F7D0
:101A40009B8B8A8B8C899D8901979D8B8C8B8C8934
:101A50009D89009769F724C06E897F89888D998D4B
:101A60000E944100DC01CB019D8B8C8B8C899D8970
:101A7000998B888B888999890197F1F7998B888B45
:101A80000FC06F8D78A189A19AA10E944100DC014D
:101A9000CB018E8F8E8D8F878F858A95F1F78F87FB
:101AA00081E00E94270A80E090E0A0E0B0E48B870C
:101AB0009C87AD87BE876B857C858D859E8520E064
:101AC00030E04AEF54E40E941702DC01CB018F831F
:101AD0009887A987BA876F81788589859A8520E05C
:101AE00030E040E85FE30E941D0488232CF481E08D
:101AF00090E09E838D833FC06F81788589859A852C
:101B000020E03FEF4FE757E40E94BD0318164CF565
:101B10006B857C858D859E8520E030E040E251E438
:101B20000E941702DC01CB01BC01CD010E944100E3
:101B3000DC01CB019E838D830FC088EC90E09C83F9
:101B40008B838B819C810197F1F79C838B838D81A3
:101B50009E8101979E838D838D819E81009769F779
:101B600014C06F81788589859A850E944100DC01C7
:101B7000CB019E838D838D819E819A838983898108
:101B80009A810197F1F79A838983C45BDF4F0FB67F
:101B9000F894DEBF0FBECDBFCF91DF911F910F91A3
:101BA0000895DF93CF9300D00F92CDB7DEB79B831C
:101BB0008A8319820EC08981282F30E08A819B8117
:101BC000FC01E20FF31F80810E94390A89818F5F37
:101BD00089838981282F30E08A819B81FC01E20F73
:101BE000F31F8081882339F70F900F900F90CF91CA
:101BF000DF910895DF93CF9300D000D0CDB7DEB74B
:101C00008B836C8319828B818230A0F48C8180312C
:101C100088F48B81882319F48C818A8306C08B8198
:101C2000813019F48C81805C8A838A8180580E947B
:101C3000270A02C081E0898389810F900F900F905D
:101C40000F90CF91DF910895DF93CF93CDB7DEB79B
:101C500027970FB6F894DEBF0FBECDBF9C838B8352
:101C60006D834E832F831A828D81882F90E0880F99
:101C7000991F880F991F880F991F8A838A81805C1A
:101C80000E94270A19820EC08981282F30E08B819B
:101C90009C81FC01E20FF31F80810E94390A898137
:101CA0008F5F89838981883078F38E816F810E946C
:101CB000FA0D8D810E94390A27960FB6F894DEBF7F
:101CC0000FBECDBFCF91DF910895DF93CF93CDB7F6
:101CD000DEB781E00E94270ACF91DF910895DF935C
:101CE000CF93CDB7DEB7AF970FB6F894DEBF0FBE78
:101CF000CDBF6CA77DA78EA79FA71A8219828CA53E
:101D00009DA5AEA5BFA50097A105B10509F041C0ED
:101D10008A81282F30E0CE010496FC01E20FF31FE8
:101D200080E380838A818F5F8A8349C08CA59DA5CB
:101D3000AEA5BFA52AE030E040E050E0BC01CD01F7
:101D40000E942715DC01CB018B838A81282F30E08C
:101D50008B81482F405DCE010496FC01E20FF31FFA
:101D600040838A818F5F8A838CA59DA5AEA5BFA580
:101D70002AE030E040E050E0BC01CD010E94271590
:101D8000DA01C9018CA79DA7AEA7BFA789818F5F84
:101D900089838CA59DA5AEA5BFA50097A105B1051A
:101DA00029F68A81282F30E0CE010496FC01E20F4B
:101DB000F31F1082CE01049669810E94E80EAF964F
:101DC0000FB6F894DEBF0FBECDBFCF91DF9108955F
:101DD000DF93CF9300D000D00F92CDB7DEB79C83B6
:101DE0008B836D831A828D818150898319C08A818A
:101DF000282F30E08B819C81AC01420F531F8981D9
:101E0000282F30E08B819C81280F391FCA01B9012E
:101E10000E94200F8A818F5F8A8389818150898304
:101E20009A818981981718F38B819C810E94D10D2A
:101E30000F900F900F900F900F90CF91DF9108951A
:101E4000DF93CF9300D000D000D0CDB7DEB79C8316
:101E50008B837E836D831A821982EB81FC81808162
:101E6000882F90E09A838983ED81FE818081EB81C8
:101E7000FC8180838981ED81FE81808326960FB667
:101E8000F894DEBF0FBECDBFCF91DF910895DF93F1
:101E9000CF93CDB7DEB7E0E4F0E01082E9E2F0E006
:101EA00083E38083E0E4F0E086E88083EAE2F0E028
:101EB00088E18083CF91DF910895DF93CF930F92D4
:101EC000CDB7DEB78983EBE2F0E08081829586951D
:101ED0008770882F90E0817090700097A1F3ECE2FA
:101EE000F0E0898180830F90CF91DF910895DF9397
:101EF000CF93CDB7DEB7EBE2F0E080818823DCF74B
:101F0000ECE2F0E08081CF91DF910895DF93CF93F1
:101F100000D0CDB7DEB79A8389830AC0E981FA8100
:101F200080810E945D0F89819A8101969A838983BD
:101F3000E981FA818081882389F70F900F90CF91F2
:101F4000DF9108950F931F93DF93CF9300D00F92EB
:101F5000CDB7DEB79B838A8319820FC08981282F72
:101F600030E08A819B818C01020F131F0E94770F42
:101F7000F801808389818F5F89838981883070F33C
:101F80008981282F30E08A819B81FC01E20FF31FB9
:101F900010820F900F900F90CF91DF911F910F91B2
:101FA00008950F931F93DF93CF93CDB7DEB7CB5830
:101FB000D0400FB6F894DEBF0FBECDBF83E060E027
:101FC00040E00E94060783E061E041E00E940607CE
:101FD00083E063E041E00E9406070E94470FFE0194
:101FE000E35AFF4F8FE68083FE01E35AFF4F8EE6F0
:101FF0008183FE01E35AFF4F85E68283FE01E35AA7
:10200000FF4F1382FE01EF59FF4F84E78083FE01EB
:10201000EF59FF4F87E78183FE01EF59FF4F8FE6AE
:102020008283FE01EF59FF4F1382CE018B599F4FE0
:10203000EF969FAF8EAFEF9789E790E0C158DF4FE3
:1020400099838883CF57D04097E0CF57DF4F98834D
:10205000C158D040C158DF4FE881F981CF57D040F7
:102060000080C158DF4F88819981CF57D0400196B9
:10207000C158DF4F99838883CF57D040EF96EEAD9C
:10208000FFADEF970082EF968EAD9FADEF97019673
:10209000EF969FAF8EAFEF97CF57DF4F9881C15824
:1020A000D0409150CF57DF4F9883C158D040CF5781
:1020B000DF4FE881C158D040EE2361F6CE0184594C
:1020C0009F4FCE57DF4F99838883C258D0408EE60A
:1020D00090E0CC57DF4F99838883C458D0409BE071
:1020E000CA57DF4F9883C658D040CC57DF4FE8819E
:1020F000F981C458D0400080CC57DF4F8881998146
:10210000C458D0400196CC57DF4F99838883C45878
:10211000D040CE57DF4FE881F981C258D0400082CD
:10212000CE57DF4F88819981C258D0400196CE5753
:10213000DF4F99838883C258D040CA57DF4F9881B8
:10214000C658D0409150CA57DF4F9883C658D040E8
:10215000CA57DF4FE881C658D040EE2331F6CE0192
:1021600089589F4FC957DF4F99838883C758D040FC
:1021700088E690E0C757DF4F99838883C958D040DD
:1021800096E0C557DF4F9883CB58D040C757DF4FF5
:10219000E881F981C958D0400080C757DF4F888156
:1021A0009981C958D0400196C757DF4F99838883DA
:1021B000C958D040C957DF4FE881F981C758D0408E
:1021C0000082C957DF4F88819981C758D040019656
:1021D000C957DF4F99838883C758D040C557DF4F11
:1021E0009881CB58D0409150C557DF4F9883CB583A
:1021F000D040C557DF4FE881CB58D040EE2331F6B1
:1022000080E067E040E00E94060780E066E040E092
:102210000E9406070E9447060E94FE0A87E00E946D
:102220007F06FE01E75AFF4F882F90E0A0E0B0E064
:1022300080839183A283B38386E00E947F06FE01A0
:10224000EB5AFF4F882F90E0A0E0B0E080839183AD
:10225000A283B383FE01E75AFF4F80819181A2815F
:10226000B3818C389105A105B10508F4CCC0FE01FD
:10227000EB5AFF4F80819181A281B3818B3591050B
:10228000A105B10508F0BFC0CE01835A9F4F0E943F
:10229000860FCE01835A9F4F0E94D10DFE01EF5A47
:1022A000FF4F80E090E0AAE7B4E480839183A283AB
:1022B000B3838E01035B1F4FFE01EF5AFF4F608116
:1022C00071818281938120E030E04AEF54E40E94E2
:1022D0001702DC01CB01F80180839183A283B383D1
:1022E000FE01E35BFF4F608171818281938120E079
:1022F00030E040E85FE30E941D04882344F4FE01BF
:10230000E55BFF4F81E090E09183808364C0FE0134
:10231000E35BFF4F608171818281938120E03FEF19
:102320004FE757E40E94BD0318160CF043C0FE01AE
:10233000EF5AFF4F608171818281938120E030E00C
:1023400040E251E40E941702DC01CB018E01055BE3
:102350001F4FBC01CD010E944100DC01CB01F801FF
:10236000918380831FC0FE01E75BFF4F88EC90E004
:1023700091838083FE01E75BFF4F8081918101970C
:10238000F1F7FE01E75BFF4F91838083DE01A55BE0
:10239000BF4FFE01E55BFF4F808191810197119650
:1023A0009C938E93FE01E55BFF4F808191810097A6
:1023B000D1F6D8C28E01055B1F4FFE01E35BFF4FD4
:1023C00060817181828193810E944100DC01CB0197
:1023D000F80191838083DE01A95BBF4FFE01E55BBD
:1023E000FF4F8081918111969C938E93FE01E95B52
:1023F000FF4F808191810197F1F7FE01E95BFF4F6B
:1024000091838083AFC2FE01E75AFF4F80819181A3
:10241000A281B3818C389105A105B10508F49DC056
:10242000FE01EB5AFF4F80819181A281B3818238F6
:102430009105A105B10508F490C0CE018F599F4FB9
:102440000E94860FCE018F599F4F0E94D10DFE0131
:10245000ED5BFF4F80E090E0AAE7B4E480839183D6
:10246000A283B3838E01015C1F4FFE01ED5BFF4F22
:10247000608171818281938120E030E04AEF54E4F1
:102480000E941702DC01CB01F80180839183A283B3
:10249000B383FE01FF96608171818281938120E088
:1024A00030E040E85FE30E941D0488232CF481E0C3
:1024B00090E09EAF8DAF46C0FE01FF9660817181B6
:1024C0008281938120E03FEF4FE757E40E94BD03F4
:1024D000181664F5FE01ED5BFF4F6081718182810A
:1024E000938120E030E040E251E40E941702DC01D9
:1024F000CB01BC01CD010E944100DC01CB019EAFAC
:102500008DAF0FC088EC90E09CAF8BAF8BAD9CADD6
:102510000197F1F79CAF8BAF8DAD9EAD01979EAF4C
:102520008DAF8DAD9EAD009769F71CC2FE01FF9681
:1025300060817181828193810E944100DC01CB0125
:102540009EAF8DAF8DAD9EAD9AAF89AF89AD9AAD7F
:102550000197F1F79AAF89AF05C2FE01E75AFF4F25
:1025600080819181A281B38185359105A105B10555
:1025700008F4A4C0FE01E75AFF4F80819181A28137
:10258000B38184379105A105B10508F097C0FE011C
:10259000EB5AFF4F80819181A281B38180359105F3
:1025A000A105B10508F48AC0FE01EB5AFF4F8081F6
:1025B0009181A281B38185369105A105B10508F00D
:1025C0007DC0CE018B599F4F0E94860FCE018B5943
:1025D0009F4F0E94D10D80E090E0AAE7B4E48DAB5C
:1025E0009EABAFABB8AF6DA97EA98FA998AD20E027
:1025F00030E04AEF54E40E941702DC01CB0189ABC2
:102600009AABABABBCAB69A97AA98BA99CA920E01A
:1026100030E040E85FE30E941D0488232CF481E051
:1026200090E098AB8FA73FC069A97AA98BA99CA914
:1026300020E03FEF4FE757E40E94BD0318164CF52A
:102640006DA97EA98FA998AD20E030E040E251E469
:102650000E941702DC01CB01BC01CD010E944100A8
:10266000DC01CB0198AB8FA70FC088EC90E09EA750
:102670008DA78DA59EA50197F1F79EA78DA78FA584
:1026800098A9019798AB8FA78FA598A9009769F78C
:1026900069C169A97AA98BA99CA90E944100DC01A2
:1026A000CB0198AB8FA78FA598A99CA78BA78BA5CB
:1026B0009CA50197F1F79CA78BA754C1FE01E75A8F
:1026C000FF4F80819181A281B38181399105A1055C
:1026D000B10508F497C0FE01EB5AFF4F808191814C
:1026E000A281B38184369105A105B10508F48AC0A1
:1026F000FE01EB5AFF4F80819181A281B3818E3719
:102700009105A105B10508F07DC0CE0184599F4F08
:102710000E94860FCE0184599F4F0E94D10D80E008
:1027200090E0AAE7B4E48FA398A7A9A7BAA76FA1DE
:1027300078A589A59AA520E030E04AEF54E40E94EC
:102740001702DC01CB018BA39CA3ADA3BEA36BA19D
:102750007CA18DA19EA120E030E040E85FE30E94D3
:102760001D0488232CF481E090E09AA389A33FC044
:102770006BA17CA18DA19EA120E03FEF4FE757E424
:102780000E94BD0318164CF56FA178A589A59AA5DE
:1027900020E030E040E251E40E941702DC01CB016E
:1027A000BC01CD010E944100DC01CB019AA389A3A9
:1027B0000FC088EC90E098A38F8F8F8D98A1019720
:1027C000F1F798A38F8F89A19AA101979AA389A362
:1027D00089A19AA1009769F7C5C06BA17CA18DA1C1
:1027E0009EA10E944100DC01CB019AA389A389A18B
:1027F0009AA19E8F8D8F8D8D9E8D0197F1F79E8F63
:102800008D8FB0C0FE01E75AFF4F80819181A28178
:10281000B38188379105A105B10508F4A3C0FE0175
:10282000E75AFF4F80819181A281B3818C38910555
:10283000A105B10508F096C0FE01EB5AFF4F80815B
:102840009181A281B38184369105A105B10508F477
:1028500089C0FE01EB5AFF4F80819181A281B38133
:1028600088379105A105B10508F07CC0CE018958D3
:102870009F4F0E94860FCE0189589F4F0E94D10D15
:1028800080E090E0AAE7B4E4898F9A8FAB8FBC8F89
:10289000698D7A8D8B8D9C8D20E030E04AEF54E479
:1028A0000E941702DC01CB018D8B9E8BAF8BB88F02
:1028B0006D897E898F89988D20E030E040E85FE364
:1028C0000E941D0488232CF481E090E09C8B8B8B6C
:1028D0003FC06D897E898F89988D20E03FEF4FE75B
:1028E00057E40E94BD0318164CF5698D7A8D8B8DC7
:1028F0009C8D20E030E040E251E40E941702DC01B0
:10290000CB01BC01CD010E944100DC01CB019C8BBD
:102910008B8B0FC088EC90E09A8B898B89899A8980
:102920000197F1F79A8B898B8B899C8901979C8BF6
:102930008B8B8B899C89009769F714C06D897E8980
:102940008F89988D0E944100DC01CB019C8B8B8B81
:102950008B899C89988B8F878F8598890197F1F750
:10296000988B8F8780E090E0AAEFB3E48B879C87F9
:10297000AD87BE876B857C858D859E8520E030E0A8
:102980004AEF54E40E941702DC01CB018F83988741
:10299000A987BA876F81788589859A8520E030E09C
:1029A00040E85FE30E941D0488232CF481E090E05E
:1029B0009E838D833FC06F81788589859A8520E0CD
:1029C0003FEF4FE757E40E94BD0318164CF56B85A7
:1029D0007C858D859E8520E030E040E251E40E94B8
:1029E0001702DC01CB01BC01CD010E944100DC01DA
:1029F000CB019E838D830FC088EC90E09C838B83FA
:102A00008B819C810197F1F79C838B838D819E81C3
:102A100001979E838D838D819E81009769F714C0F5
:102A20006F81788589859A850E944100DC01CB0100
:102A30009E838D838D819E819A83898389819A81EA
:102A40000197F1F79A8389830E94650EE7CBA1E293
:102A50001A2EAA1BBB1BFD010DC0AA1FBB1FEE1F18
:102A6000FF1FA217B307E407F50720F0A21BB30B63
:102A7000E40BF50B661F771F881F991F1A9469F7DF
:102A800060957095809590959B01AC01BD01CF013B
:102A900008952F923F924F925F926F927F928F9202
:102AA0009F92AF92BF92CF92DF92EF92FF920F93DD
:102AB0001F93CF93DF93CDB7DEB7CA1BDB0B0FB6E7
:102AC000F894DEBF0FBECDBF09942A8839884888A4
:102AD0005F846E847D848C849B84AA84B984C8843A
:102AE000DF80EE80FD800C811B81AA81B981CE0F31
:102AF000D11D0FB6F894DEBF0FBECDBFED01089516
:042B0000F894FFCF77
:102B040000000000000000007261626974006961E5
:102B14006D2068756E67727900636972636C650015
:00000001FF
